{
  "contractName": "charity",
  "abi": [
    {
      "inputs": [],
      "stateMutability": "nonpayable",
      "type": "constructor"
    },
    {
      "anonymous": false,
      "inputs": [
        {
          "indexed": false,
          "internalType": "uint256",
          "name": "blockNumber",
          "type": "uint256"
        },
        {
          "indexed": false,
          "internalType": "bytes32",
          "name": "blockHash",
          "type": "bytes32"
        }
      ],
      "name": "BlockMined",
      "type": "event"
    },
    {
      "anonymous": false,
      "inputs": [
        {
          "indexed": false,
          "internalType": "uint256",
          "name": "id",
          "type": "uint256"
        },
        {
          "indexed": false,
          "internalType": "string",
          "name": "name",
          "type": "string"
        },
        {
          "indexed": false,
          "internalType": "address",
          "name": "wallet_address",
          "type": "address"
        }
      ],
      "name": "CharityCreated",
      "type": "event"
    },
    {
      "anonymous": false,
      "inputs": [
        {
          "indexed": false,
          "internalType": "uint256",
          "name": "charity_id",
          "type": "uint256"
        },
        {
          "indexed": false,
          "internalType": "uint256",
          "name": "milestone_id",
          "type": "uint256"
        }
      ],
      "name": "MilestoneCompleted",
      "type": "event"
    },
    {
      "anonymous": false,
      "inputs": [
        {
          "indexed": false,
          "internalType": "uint256",
          "name": "charity_id",
          "type": "uint256"
        },
        {
          "indexed": false,
          "internalType": "uint256",
          "name": "milestone_id",
          "type": "uint256"
        },
        {
          "indexed": false,
          "internalType": "string",
          "name": "description",
          "type": "string"
        },
        {
          "indexed": false,
          "internalType": "uint256",
          "name": "target",
          "type": "uint256"
        }
      ],
      "name": "MilestoneCreated",
      "type": "event"
    },
    {
      "anonymous": false,
      "inputs": [
        {
          "indexed": false,
          "internalType": "uint256",
          "name": "id",
          "type": "uint256"
        },
        {
          "indexed": false,
          "internalType": "string",
          "name": "name",
          "type": "string"
        },
        {
          "indexed": false,
          "internalType": "address",
          "name": "wallet_address",
          "type": "address"
        }
      ],
      "name": "OrganisationCreated",
      "type": "event"
    },
    {
      "anonymous": false,
      "inputs": [
        {
          "indexed": false,
          "internalType": "uint256",
          "name": "id",
          "type": "uint256"
        },
        {
          "indexed": false,
          "internalType": "address",
          "name": "from",
          "type": "address"
        },
        {
          "indexed": false,
          "internalType": "address",
          "name": "to",
          "type": "address"
        },
        {
          "indexed": false,
          "internalType": "uint256",
          "name": "amount",
          "type": "uint256"
        },
        {
          "indexed": false,
          "internalType": "string",
          "name": "purpose",
          "type": "string"
        }
      ],
      "name": "TransactionCompleted",
      "type": "event"
    },
    {
      "inputs": [
        {
          "internalType": "uint256",
          "name": "",
          "type": "uint256"
        }
      ],
      "name": "Blockchain",
      "outputs": [
        {
          "internalType": "uint256",
          "name": "nonce",
          "type": "uint256"
        },
        {
          "internalType": "bytes",
          "name": "data",
          "type": "bytes"
        },
        {
          "internalType": "bytes32",
          "name": "transaction_hash_add",
          "type": "bytes32"
        },
        {
          "internalType": "uint256",
          "name": "blockNumber",
          "type": "uint256"
        },
        {
          "internalType": "bytes32",
          "name": "hash",
          "type": "bytes32"
        },
        {
          "internalType": "bytes32",
          "name": "previous_hash",
          "type": "bytes32"
        },
        {
          "internalType": "uint256",
          "name": "timestamp",
          "type": "uint256"
        }
      ],
      "stateMutability": "view",
      "type": "function"
    },
    {
      "inputs": [],
      "name": "blockchain_count",
      "outputs": [
        {
          "internalType": "uint256",
          "name": "",
          "type": "uint256"
        }
      ],
      "stateMutability": "view",
      "type": "function"
    },
    {
      "inputs": [],
      "name": "charity_count",
      "outputs": [
        {
          "internalType": "uint256",
          "name": "",
          "type": "uint256"
        }
      ],
      "stateMutability": "view",
      "type": "function"
    },
    {
      "inputs": [
        {
          "internalType": "uint256",
          "name": "",
          "type": "uint256"
        },
        {
          "internalType": "uint256",
          "name": "",
          "type": "uint256"
        }
      ],
      "name": "charity_milestones",
      "outputs": [
        {
          "internalType": "string",
          "name": "description",
          "type": "string"
        },
        {
          "internalType": "uint256",
          "name": "target_amount",
          "type": "uint256"
        },
        {
          "internalType": "uint256",
          "name": "current_amount",
          "type": "uint256"
        },
        {
          "internalType": "bool",
          "name": "released",
          "type": "bool"
        },
        {
          "internalType": "uint256",
          "name": "deadline",
          "type": "uint256"
        }
      ],
      "stateMutability": "view",
      "type": "function"
    },
    {
      "inputs": [
        {
          "internalType": "uint256",
          "name": "",
          "type": "uint256"
        }
      ],
      "name": "charitys",
      "outputs": [
        {
          "internalType": "string",
          "name": "name",
          "type": "string"
        },
        {
          "internalType": "string",
          "name": "description",
          "type": "string"
        },
        {
          "internalType": "address payable",
          "name": "wallet_address",
          "type": "address"
        },
        {
          "internalType": "uint256",
          "name": "id",
          "type": "uint256"
        },
        {
          "internalType": "bytes32",
          "name": "hash",
          "type": "bytes32"
        },
        {
          "internalType": "uint256",
          "name": "balance",
          "type": "uint256"
        },
        {
          "internalType": "string",
          "name": "impact_metrics",
          "type": "string"
        },
        {
          "internalType": "bool",
          "name": "verified",
          "type": "bool"
        }
      ],
      "stateMutability": "view",
      "type": "function"
    },
    {
      "inputs": [
        {
          "internalType": "uint256",
          "name": "",
          "type": "uint256"
        }
      ],
      "name": "org",
      "outputs": [
        {
          "internalType": "string",
          "name": "name",
          "type": "string"
        },
        {
          "internalType": "address payable",
          "name": "wallet_address",
          "type": "address"
        },
        {
          "internalType": "uint256",
          "name": "id",
          "type": "uint256"
        },
        {
          "internalType": "bytes32",
          "name": "hash",
          "type": "bytes32"
        },
        {
          "internalType": "uint256",
          "name": "balance",
          "type": "uint256"
        },
        {
          "internalType": "bool",
          "name": "verified",
          "type": "bool"
        }
      ],
      "stateMutability": "view",
      "type": "function"
    },
    {
      "inputs": [],
      "name": "org_count",
      "outputs": [
        {
          "internalType": "uint256",
          "name": "",
          "type": "uint256"
        }
      ],
      "stateMutability": "view",
      "type": "function"
    },
    {
      "inputs": [],
      "name": "transaction_count",
      "outputs": [
        {
          "internalType": "uint256",
          "name": "",
          "type": "uint256"
        }
      ],
      "stateMutability": "view",
      "type": "function"
    },
    {
      "inputs": [
        {
          "internalType": "uint256",
          "name": "",
          "type": "uint256"
        }
      ],
      "name": "transaction_dict",
      "outputs": [
        {
          "internalType": "address payable",
          "name": "charity_address",
          "type": "address"
        },
        {
          "internalType": "address payable",
          "name": "organisation_address",
          "type": "address"
        },
        {
          "internalType": "uint256",
          "name": "amount",
          "type": "uint256"
        },
        {
          "internalType": "uint256",
          "name": "id",
          "type": "uint256"
        },
        {
          "internalType": "bytes32",
          "name": "transaction_hash",
          "type": "bytes32"
        },
        {
          "internalType": "uint256",
          "name": "timestamp",
          "type": "uint256"
        },
        {
          "internalType": "string",
          "name": "purpose",
          "type": "string"
        },
        {
          "internalType": "bool",
          "name": "completed",
          "type": "bool"
        }
      ],
      "stateMutability": "view",
      "type": "function"
    },
    {
      "inputs": [
        {
          "internalType": "address",
          "name": "",
          "type": "address"
        }
      ],
      "name": "verified_addresses",
      "outputs": [
        {
          "internalType": "bool",
          "name": "",
          "type": "bool"
        }
      ],
      "stateMutability": "view",
      "type": "function"
    },
    {
      "inputs": [
        {
          "internalType": "string",
          "name": "_name",
          "type": "string"
        },
        {
          "internalType": "string",
          "name": "_description",
          "type": "string"
        },
        {
          "internalType": "address payable",
          "name": "_wallet_address",
          "type": "address"
        },
        {
          "internalType": "string",
          "name": "_impact_metrics",
          "type": "string"
        }
      ],
      "name": "createCharity",
      "outputs": [
        {
          "internalType": "uint256",
          "name": "",
          "type": "uint256"
        }
      ],
      "stateMutability": "nonpayable",
      "type": "function"
    },
    {
      "inputs": [
        {
          "internalType": "string",
          "name": "_name",
          "type": "string"
        },
        {
          "internalType": "address payable",
          "name": "_wallet_address",
          "type": "address"
        }
      ],
      "name": "createOrganisation",
      "outputs": [
        {
          "internalType": "uint256",
          "name": "",
          "type": "uint256"
        }
      ],
      "stateMutability": "nonpayable",
      "type": "function"
    },
    {
      "inputs": [
        {
          "internalType": "address payable",
          "name": "_charity_address",
          "type": "address"
        },
        {
          "internalType": "string",
          "name": "_purpose",
          "type": "string"
        }
      ],
      "name": "createTransaction",
      "outputs": [
        {
          "internalType": "uint256",
          "name": "",
          "type": "uint256"
        }
      ],
      "stateMutability": "payable",
      "type": "function"
    },
    {
      "inputs": [
        {
          "internalType": "uint256",
          "name": "_charity_id",
          "type": "uint256"
        },
        {
          "internalType": "string",
          "name": "_description",
          "type": "string"
        },
        {
          "internalType": "uint256",
          "name": "_target_amount",
          "type": "uint256"
        },
        {
          "internalType": "uint256",
          "name": "_deadline",
          "type": "uint256"
        }
      ],
      "name": "createMilestone",
      "outputs": [
        {
          "internalType": "uint256",
          "name": "",
          "type": "uint256"
        }
      ],
      "stateMutability": "nonpayable",
      "type": "function"
    },
    {
      "inputs": [
        {
          "internalType": "uint256",
          "name": "_id",
          "type": "uint256"
        },
        {
          "internalType": "bool",
          "name": "_is_charity",
          "type": "bool"
        }
      ],
      "name": "verifyEntity",
      "outputs": [],
      "stateMutability": "nonpayable",
      "type": "function"
    },
    {
      "inputs": [
        {
          "internalType": "uint256",
          "name": "_charity_id",
          "type": "uint256"
        },
        {
          "internalType": "string",
          "name": "_update",
          "type": "string"
        }
      ],
      "name": "addCharityUpdate",
      "outputs": [],
      "stateMutability": "nonpayable",
      "type": "function"
    },
    {
      "inputs": [
        {
          "internalType": "uint256",
          "name": "_charity_id",
          "type": "uint256"
        }
      ],
      "name": "getCharityUpdates",
      "outputs": [
        {
          "internalType": "string[]",
          "name": "",
          "type": "string[]"
        }
      ],
      "stateMutability": "view",
      "type": "function"
    },
    {
      "inputs": [],
      "name": "blockchain_function",
      "outputs": [],
      "stateMutability": "nonpayable",
      "type": "function"
    },
    {
      "inputs": [
        {
          "internalType": "uint256",
          "name": "_id",
          "type": "uint256"
        }
      ],
      "name": "getCharityDetails",
      "outputs": [
        {
          "internalType": "string",
          "name": "name",
          "type": "string"
        },
        {
          "internalType": "string",
          "name": "description",
          "type": "string"
        },
        {
          "internalType": "address payable",
          "name": "wallet_address",
          "type": "address"
        },
        {
          "internalType": "uint256",
          "name": "balance",
          "type": "uint256"
        },
        {
          "internalType": "string",
          "name": "impact_metrics",
          "type": "string"
        },
        {
          "internalType": "bool",
          "name": "verified",
          "type": "bool"
        }
      ],
      "stateMutability": "view",
      "type": "function"
    },
    {
      "inputs": [
        {
          "internalType": "uint256",
          "name": "_id",
          "type": "uint256"
        }
      ],
      "name": "getOrganisationDetails",
      "outputs": [
        {
          "internalType": "string",
          "name": "name",
          "type": "string"
        },
        {
          "internalType": "address payable",
          "name": "wallet_address",
          "type": "address"
        },
        {
          "internalType": "uint256",
          "name": "balance",
          "type": "uint256"
        },
        {
          "internalType": "bool",
          "name": "verified",
          "type": "bool"
        }
      ],
      "stateMutability": "view",
      "type": "function"
    }
  ],
  "bytecode": "0x60806040525f5f555f6001555f6002555f60035534801561001e575f5ffd5b506100aa6040518060400160405280601681526020017f426c6f636b636861696e2052656c6965662046756e640000000000000000000081525060405180608001604052806044815260200161471c6044913973ca35b7d915458ef540ade6068dfe2f44e8fa733c6040518060600160405280602481526020016147606024913961011860201b60201c565b506101046040518060400160405280601681526020017f43727970746f20446f6e6f727320416c6c69616e63650000000000000000000081525073ca35b7d915458ef540ade6068dfe2f44e8fa733c61037560201b60201c565b5061011361052760201b60201c565b61118c565b5f5f5f81548092919061012a906108b6565b91905055505f8590505f8590505f856040516020016101499190610972565b60405160208183030381529060405290505f838383604051602001610170939291906109de565b60405160208183030381529060405290505f818051906020012090506040518061012001604052808b81526020018a81526020018973ffffffffffffffffffffffffffffffffffffffff1681526020015f5481526020018281526020015f81526020018881526020015f151581526020015f67ffffffffffffffff8111156101fb576101fa610a0e565b5b60405190808252806020026020018201604052801561022e57816020015b60608152602001906001900390816102195790505b5081525060045f5f5481526020019081526020015f205f820151815f0190816102579190610c42565b50602082015181600101908161026d9190610c42565b506040820151816002015f6101000a81548173ffffffffffffffffffffffffffffffffffffffff021916908373ffffffffffffffffffffffffffffffffffffffff160217905550606082015181600301556080820151816004015560a0820151816005015560c08201518160060190816102e79190610c42565b5060e0820151816007015f6101000a81548160ff0219169083151502179055506101008201518160080190805190602001906103249291906107ae565b509050507f74d3ebb9ec8cb63c8a50cf6e75e793a0bbefce965deaa362c10acaa27fa28b225f548b8a60405161035c93929190610dca565b60405180910390a15f5495505050505050949350505050565b5f60015f815480929190610388906108b6565b91905055505f8390505f836040516020016103a39190610972565b60405160208183030381529060405290505f82826040516020016103c8929190610e06565b60405160208183030381529060405290505f818051906020012090508660055f60015481526020019081526020015f205f0190816104069190610c42565b508560055f60015481526020019081526020015f206001015f6101000a81548173ffffffffffffffffffffffffffffffffffffffff021916908373ffffffffffffffffffffffffffffffffffffffff16021790555060015460055f60015481526020019081526020015f20600201819055508060055f60015481526020019081526020015f20600301819055505f60055f60015481526020019081526020015f20600401819055505f60055f60015481526020019081526020015f206005015f6101000a81548160ff0219169083151502179055507fea026714b94a807258b5eca9f9c8400b32fb01ec446d4526e358cc8b3c5928b8600154888860405161051093929190610dca565b60405180910390a160015494505050505092915050565b60035f815480929190610539906108b6565b91905055505f61054d61069a60201b60201c565b90505f61055e6106c360201b60201c565b90505f620f42406001436105729190610e29565b405f1c61057f9190610e89565b90505f818484600a544260405160200161059d959493929190610f02565b6040516020818303038152906040528051906020012090506040518060e001604052808381526020018581526020018481526020016003548152602001828152602001600a5481526020014281525060075f60035481526020019081526020015f205f820151815f0155602082015181600101908161061c9190610fb4565b5060408201518160020155606082015181600301556080820151816004015560a0820151816005015560c0820151816006015590505080600a819055507fe3527dce187216ae1bb230a27b409757544e9c7b658ad4bb70c4d6f2a3186dde6003548260405161068c929190611092565b60405180910390a150505050565b60606003546040516020016106af919061110d565b604051602081830303815290604052905090565b5f60605f600190505b600254811161079f578160065f8381526020019081526020015f205f015f9054906101000a900473ffffffffffffffffffffffffffffffffffffffff1660065f8481526020019081526020015f206001015f9054906101000a900473ffffffffffffffffffffffffffffffffffffffff1660065f8581526020019081526020015f206002015460065f8681526020019081526020015f206004015460405160200161077b959493929190611132565b60405160208183030381529060405291508080610797906108b6565b9150506106cc565b50808051906020012091505090565b828054828255905f5260205f209081019282156107f4579160200282015b828111156107f35782518290816107e39190610c42565b50916020019190600101906107cc565b5b5090506108019190610805565b5090565b5b80821115610824575f818161081b9190610828565b50600101610806565b5090565b50805461083490610a72565b5f825580601f106108455750610862565b601f0160209004905f5260205f20908101906108619190610865565b5b50565b5b8082111561087c575f815f905550600101610866565b5090565b7f4e487b71000000000000000000000000000000000000000000000000000000005f52601160045260245ffd5b5f819050919050565b5f6108c0826108ad565b91507fffffffffffffffffffffffffffffffffffffffffffffffffffffffffffffffff82036108f2576108f1610880565b5b600182019050919050565b5f73ffffffffffffffffffffffffffffffffffffffff82169050919050565b5f610926826108fd565b9050919050565b5f8160601b9050919050565b5f6109438261092d565b9050919050565b5f61095482610939565b9050919050565b61096c6109678261091c565b61094a565b82525050565b5f61097d828461095b565b60148201915081905092915050565b5f81519050919050565b5f81905092915050565b8281835e5f83830152505050565b5f6109b88261098c565b6109c28185610996565b93506109d28185602086016109a0565b80840191505092915050565b5f6109e982866109ae565b91506109f582856109ae565b9150610a0182846109ae565b9150819050949350505050565b7f4e487b71000000000000000000000000000000000000000000000000000000005f52604160045260245ffd5b5f81519050919050565b7f4e487b71000000000000000000000000000000000000000000000000000000005f52602260045260245ffd5b5f6002820490506001821680610a8957607f821691505b602082108103610a9c57610a9b610a45565b5b50919050565b5f819050815f5260205f209050919050565b5f6020601f8301049050919050565b5f82821b905092915050565b5f60088302610afe7fffffffffffffffffffffffffffffffffffffffffffffffffffffffffffffffff82610ac3565b610b088683610ac3565b95508019841693508086168417925050509392505050565b5f819050919050565b5f610b43610b3e610b39846108ad565b610b20565b6108ad565b9050919050565b5f819050919050565b610b5c83610b29565b610b70610b6882610b4a565b848454610acf565b825550505050565b5f5f905090565b610b87610b78565b610b92818484610b53565b505050565b5b81811015610bb557610baa5f82610b7f565b600181019050610b98565b5050565b601f821115610bfa57610bcb81610aa2565b610bd484610ab4565b81016020851015610be3578190505b610bf7610bef85610ab4565b830182610b97565b50505b505050565b5f82821c905092915050565b5f610c1a5f1984600802610bff565b1980831691505092915050565b5f610c328383610c0b565b9150826002028217905092915050565b610c4b82610a3b565b67ffffffffffffffff811115610c6457610c63610a0e565b5b610c6e8254610a72565b610c79828285610bb9565b5f60209050601f831160018114610caa575f8415610c98578287015190505b610ca28582610c27565b865550610d09565b601f198416610cb886610aa2565b5f5b82811015610cdf57848901518255600182019150602085019450602081019050610cba565b86831015610cfc5784890151610cf8601f891682610c0b565b8355505b6001600288020188555050505b505050505050565b610d1a816108ad565b82525050565b5f82825260208201905092915050565b5f601f19601f8301169050919050565b5f610d4a82610a3b565b610d548185610d20565b9350610d648185602086016109a0565b610d6d81610d30565b840191505092915050565b5f610d92610d8d610d88846108fd565b610b20565b6108fd565b9050919050565b5f610da382610d78565b9050919050565b5f610db482610d99565b9050919050565b610dc481610daa565b82525050565b5f606082019050610ddd5f830186610d11565b8181036020830152610def8185610d40565b9050610dfe6040830184610dbb565b949350505050565b5f610e1182856109ae565b9150610e1d82846109ae565b91508190509392505050565b5f610e33826108ad565b9150610e3e836108ad565b9250828203905081811115610e5657610e55610880565b5b92915050565b7f4e487b71000000000000000000000000000000000000000000000000000000005f52601260045260245ffd5b5f610e93826108ad565b9150610e9e836108ad565b925082610eae57610ead610e5c565b5b828206905092915050565b5f819050919050565b610ed3610ece826108ad565b610eb9565b82525050565b5f819050919050565b5f819050919050565b610efc610ef782610ed9565b610ee2565b82525050565b5f610f0d8288610ec2565b602082019150610f1d82876109ae565b9150610f298286610eeb565b602082019150610f398285610eeb565b602082019150610f498284610ec2565b6020820191508190509695505050505050565b5f819050815f5260205f209050919050565b601f821115610faf57610f8081610f5c565b610f8984610ab4565b81016020851015610f98578190505b610fac610fa485610ab4565b830182610b97565b50505b505050565b610fbd8261098c565b67ffffffffffffffff811115610fd657610fd5610a0e565b5b610fe08254610a72565b610feb828285610f6e565b5f60209050601f83116001811461101c575f841561100a578287015190505b6110148582610c27565b86555061107b565b601f19841661102a86610f5c565b5f5b828110156110515784890151825560018201915060208501945060208101905061102c565b8683101561106e578489015161106a601f891682610c0b565b8355505b6001600288020188555050505b505050505050565b61108c81610ed9565b82525050565b5f6040820190506110a55f830185610d11565b6110b26020830184611083565b9392505050565b5f81905092915050565b7f426c6f636b20646174612073756d6d61727920666f7220626c6f636b200000005f82015250565b5f6110f7601d836110b9565b9150611102826110c3565b601d82019050919050565b5f611117826110eb565b91506111238284610ec2565b60208201915081905092915050565b5f61113d82886109ae565b9150611149828761095b565b601482019150611159828661095b565b6014820191506111698285610ec2565b6020820191506111798284610eeb565b6020820191508190509695505050505050565b613583806111995f395ff3fe60806040526004361061011e575f3560e01c8063a26e7f981161009f578063d65be0c411610063578063d65be0c414610455578063eb2fadf014610491578063f3e2236f146104c1578063f7ff50e2146104eb578063fd5639b0146105155761011e565b8063a26e7f9814610348578063a7e6683314610370578063acecc149146103ac578063ba3dcb28146103d6578063d5e2c5e4146104125761011e565b806369e6601c116100e657806369e6601c1461020e5780636a40419a1461024f5780636b0876eb1461028e5780636f05bbf4146102ca5780639ae461b21461030c5761011e565b80630ae9d38e146101225780631c74915a1461014c5780633a770ffd14610162578063539a4a311461018a5780636610f9cf146101cb575b5f5ffd5b34801561012d575f5ffd5b50610136610555565b6040516101439190611f69565b60405180910390f35b348015610157575f5ffd5b5061016061055b565b005b34801561016d575f5ffd5b5061018860048036038101906101839190611ff2565b6106c2565b005b348015610195575f5ffd5b506101b060048036038101906101ab9190612030565b6108d9565b6040516101c296959493929190612119565b60405180910390f35b3480156101d6575f5ffd5b506101f160048036038101906101ec9190612030565b610b3d565b6040516102059897969594939291906121a5565b60405180910390f35b348015610219575f5ffd5b50610234600480360381019061022f9190612030565b610d3e565b60405161024696959493929190612236565b60405180910390f35b34801561025a575f5ffd5b5061027560048036038101906102709190612030565b610e27565b604051610285949392919061229c565b60405180910390f35b348015610299575f5ffd5b506102b460048036038101906102af9190612412565b610f67565b6040516102c19190611f69565b60405180910390f35b3480156102d5575f5ffd5b506102f060048036038101906102eb9190612030565b6110d0565b60405161030397969594939291906124e4565b60405180910390f35b348015610317575f5ffd5b50610332600480360381019061032d9190612582565b611194565b60405161033f9190611f69565b60405180910390f35b348015610353575f5ffd5b5061036e6004803603810190610369919061263a565b6113f1565b005b34801561037b575f5ffd5b5061039660048036038101906103919190612694565b611529565b6040516103a39190611f69565b60405180910390f35b3480156103b7575f5ffd5b506103c06116db565b6040516103cd9190611f69565b60405180910390f35b3480156103e1575f5ffd5b506103fc60048036038101906103f79190612729565b6116e0565b6040516104099190612754565b60405180910390f35b34801561041d575f5ffd5b5061043860048036038101906104339190612030565b6116fd565b60405161044c98979695949392919061276d565b60405180910390f35b348015610460575f5ffd5b5061047b60048036038101906104769190612030565b611811565b60405161048891906128f3565b60405180910390f35b6104ab60048036038101906104a69190612913565b611948565b6040516104b89190611f69565b60405180910390f35b3480156104cc575f5ffd5b506104d5611c81565b6040516104e29190611f69565b60405180910390f35b3480156104f6575f5ffd5b506104ff611c87565b60405161050c9190611f69565b60405180910390f35b348015610520575f5ffd5b5061053b6004803603810190610536919061296d565b611c8d565b60405161054c9594939291906129ab565b60405180910390f35b60035481565b60035f81548092919061056d90612a30565b91905055505f61057b611d6b565b90505f610586611d94565b90505f620f424060014361059a9190612a77565b405f1c6105a79190612ad7565b90505f818484600a54426040516020016105c5959493929190612b81565b6040516020818303038152906040528051906020012090506040518060e001604052808381526020018581526020018481526020016003548152602001828152602001600a5481526020014281525060075f60035481526020019081526020015f205f820151815f015560208201518160010190816106449190612dd8565b5060408201518160020155606082015181600301556080820151816004015560a0820151816005015560c0820151816006015590505080600a819055507fe3527dce187216ae1bb230a27b409757544e9c7b658ad4bb70c4d6f2a3186dde600354826040516106b4929190612ea7565b60405180910390a150505050565b80156107d0575f821180156106d857505f548211155b610717576040517f08c379a000000000000000000000000000000000000000000000000000000000815260040161070e90612f18565b60405180910390fd5b600160045f8481526020019081526020015f206007015f6101000a81548160ff021916908315150217905550600160085f60045f8681526020019081526020015f206002015f9054906101000a900473ffffffffffffffffffffffffffffffffffffffff1673ffffffffffffffffffffffffffffffffffffffff1673ffffffffffffffffffffffffffffffffffffffff1681526020019081526020015f205f6101000a81548160ff0219169083151502179055506108d5565b5f821180156107e157506001548211155b610820576040517f08c379a000000000000000000000000000000000000000000000000000000000815260040161081790612f80565b60405180910390fd5b600160055f8481526020019081526020015f206005015f6101000a81548160ff021916908315150217905550600160085f60055f8681526020019081526020015f206001015f9054906101000a900473ffffffffffffffffffffffffffffffffffffffff1673ffffffffffffffffffffffffffffffffffffffff1673ffffffffffffffffffffffffffffffffffffffff1681526020019081526020015f205f6101000a81548160ff0219169083151502179055505b5050565b6060805f5f60605f5f871180156108f157505f548711155b610930576040517f08c379a000000000000000000000000000000000000000000000000000000000815260040161092790612f18565b60405180910390fd5b5f60045f8981526020019081526020015f209050805f0181600101826002015f9054906101000a900473ffffffffffffffffffffffffffffffffffffffff16836005015484600601856007015f9054906101000a900460ff1685805461099590612c08565b80601f01602080910402602001604051908101604052809291908181526020018280546109c190612c08565b8015610a0c5780601f106109e357610100808354040283529160200191610a0c565b820191905f5260205f20905b8154815290600101906020018083116109ef57829003601f168201915b50505050509550848054610a1f90612c08565b80601f0160208091040260200160405190810160405280929190818152602001828054610a4b90612c08565b8015610a965780601f10610a6d57610100808354040283529160200191610a96565b820191905f5260205f20905b815481529060010190602001808311610a7957829003601f168201915b50505050509450818054610aa990612c08565b80601f0160208091040260200160405190810160405280929190818152602001828054610ad590612c08565b8015610b205780601f10610af757610100808354040283529160200191610b20565b820191905f5260205f20905b815481529060010190602001808311610b0357829003601f168201915b505050505091509650965096509650965096505091939550919395565b6004602052805f5260405f205f91509050805f018054610b5c90612c08565b80601f0160208091040260200160405190810160405280929190818152602001828054610b8890612c08565b8015610bd35780601f10610baa57610100808354040283529160200191610bd3565b820191905f5260205f20905b815481529060010190602001808311610bb657829003601f168201915b505050505090806001018054610be890612c08565b80601f0160208091040260200160405190810160405280929190818152602001828054610c1490612c08565b8015610c5f5780601f10610c3657610100808354040283529160200191610c5f565b820191905f5260205f20905b815481529060010190602001808311610c4257829003601f168201915b505050505090806002015f9054906101000a900473ffffffffffffffffffffffffffffffffffffffff1690806003015490806004015490806005015490806006018054610cab90612c08565b80601f0160208091040260200160405190810160405280929190818152602001828054610cd790612c08565b8015610d225780601f10610cf957610100808354040283529160200191610d22565b820191905f5260205f20905b815481529060010190602001808311610d0557829003601f168201915b505050505090806007015f9054906101000a900460ff16905088565b6005602052805f5260405f205f91509050805f018054610d5d90612c08565b80601f0160208091040260200160405190810160405280929190818152602001828054610d8990612c08565b8015610dd45780601f10610dab57610100808354040283529160200191610dd4565b820191905f5260205f20905b815481529060010190602001808311610db757829003601f168201915b505050505090806001015f9054906101000a900473ffffffffffffffffffffffffffffffffffffffff1690806002015490806003015490806004015490806005015f9054906101000a900460ff16905086565b60605f5f5f5f85118015610e3d57506001548511155b610e7c576040517f08c379a0000000000000000000000000000000000000000000000000000000008152600401610e7390612f80565b60405180910390fd5b5f60055f8781526020019081526020015f209050805f01816001015f9054906101000a900473ffffffffffffffffffffffffffffffffffffffff168260040154836005015f9054906101000a900460ff16838054610ed990612c08565b80601f0160208091040260200160405190810160405280929190818152602001828054610f0590612c08565b8015610f505780601f10610f2757610100808354040283529160200191610f50565b820191905f5260205f20905b815481529060010190602001808311610f3357829003601f168201915b505050505093509450945094509450509193509193565b5f5f85118015610f7857505f548511155b610fb7576040517f08c379a0000000000000000000000000000000000000000000000000000000008152600401610fae90612f18565b60405180910390fd5b5f60095f8781526020019081526020015f208054905090505f6040518060a001604052808781526020018681526020015f81526020015f1515815260200185815250905060095f8881526020019081526020015f2081908060018154018082558091505060019003905f5260205f2090600502015f909190919091505f820151815f0190816110469190612ff6565b5060208201518160010155604082015181600201556060820151816003015f6101000a81548160ff0219169083151502179055506080820151816004015550507f3d198c5d9c28f50bf234c9c1a9a84f7ed3a20d152833a06c844a8e897261abd2878388886040516110bb94939291906130c5565b60405180910390a18192505050949350505050565b6007602052805f5260405f205f91509050805f0154908060010180546110f590612c08565b80601f016020809104026020016040519081016040528092919081815260200182805461112190612c08565b801561116c5780601f106111435761010080835404028352916020019161116c565b820191905f5260205f20905b81548152906001019060200180831161114f57829003601f168201915b5050505050908060020154908060030154908060040154908060050154908060060154905087565b5f5f5f8154809291906111a690612a30565b91905055505f8590505f8590505f856040516020016111c59190613154565b60405160208183030381529060405290505f8383836040516020016111ec9392919061316e565b60405160208183030381529060405290505f818051906020012090506040518061012001604052808b81526020018a81526020018973ffffffffffffffffffffffffffffffffffffffff1681526020015f5481526020018281526020015f81526020018881526020015f151581526020015f67ffffffffffffffff811115611277576112766122ee565b5b6040519080825280602002602001820160405280156112aa57816020015b60608152602001906001900390816112955790505b5081525060045f5f5481526020019081526020015f205f820151815f0190816112d39190612ff6565b5060208201518160010190816112e99190612ff6565b506040820151816002015f6101000a81548173ffffffffffffffffffffffffffffffffffffffff021916908373ffffffffffffffffffffffffffffffffffffffff160217905550606082015181600301556080820151816004015560a0820151816005015560c08201518160060190816113639190612ff6565b5060e0820151816007015f6101000a81548160ff0219169083151502179055506101008201518160080190805190602001906113a0929190611e7f565b509050507f74d3ebb9ec8cb63c8a50cf6e75e793a0bbefce965deaa362c10acaa27fa28b225f548b8a6040516113d8939291906131f0565b60405180910390a15f5495505050505050949350505050565b5f8211801561140157505f548211155b611440576040517f08c379a000000000000000000000000000000000000000000000000000000000815260040161143790612f18565b60405180910390fd5b60045f8381526020019081526020015f206002015f9054906101000a900473ffffffffffffffffffffffffffffffffffffffff1673ffffffffffffffffffffffffffffffffffffffff163373ffffffffffffffffffffffffffffffffffffffff16146114e1576040517f08c379a00000000000000000000000000000000000000000000000000000000081526004016114d89061329c565b60405180910390fd5b60045f8381526020019081526020015f2060080181908060018154018082558091505060019003905f5260205f20015f9091909190915090816115249190612ff6565b505050565b5f60015f81548092919061153c90612a30565b91905055505f8390505f836040516020016115579190613154565b60405160208183030381529060405290505f828260405160200161157c9291906132ba565b60405160208183030381529060405290505f818051906020012090508660055f60015481526020019081526020015f205f0190816115ba9190612ff6565b508560055f60015481526020019081526020015f206001015f6101000a81548173ffffffffffffffffffffffffffffffffffffffff021916908373ffffffffffffffffffffffffffffffffffffffff16021790555060015460055f60015481526020019081526020015f20600201819055508060055f60015481526020019081526020015f20600301819055505f60055f60015481526020019081526020015f20600401819055505f60055f60015481526020019081526020015f206005015f6101000a81548160ff0219169083151502179055507fea026714b94a807258b5eca9f9c8400b32fb01ec446d4526e358cc8b3c5928b860015488886040516116c4939291906131f0565b60405180910390a160015494505050505092915050565b5f5481565b6008602052805f5260405f205f915054906101000a900460ff1681565b6006602052805f5260405f205f91509050805f015f9054906101000a900473ffffffffffffffffffffffffffffffffffffffff1690806001015f9054906101000a900473ffffffffffffffffffffffffffffffffffffffff169080600201549080600301549080600401549080600501549080600601805461177e90612c08565b80601f01602080910402602001604051908101604052809291908181526020018280546117aa90612c08565b80156117f55780601f106117cc576101008083540402835291602001916117f5565b820191905f5260205f20905b8154815290600101906020018083116117d857829003601f168201915b505050505090806007015f9054906101000a900460ff16905088565b60605f8211801561182357505f548211155b611862576040517f08c379a000000000000000000000000000000000000000000000000000000000815260040161185990612f18565b60405180910390fd5b60045f8381526020019081526020015f20600801805480602002602001604051908101604052809291908181526020015f905b8282101561193d578382905f5260205f200180546118b290612c08565b80601f01602080910402602001604051908101604052809291908181526020018280546118de90612c08565b80156119295780601f1061190057610100808354040283529160200191611929565b820191905f5260205f20905b81548152906001019060200180831161190c57829003601f168201915b505050505081526020019060010190611895565b505050509050919050565b5f5f341161198b576040517f08c379a00000000000000000000000000000000000000000000000000000000081526004016119829061334d565b60405180910390fd5b60025f81548092919061199d90612a30565b91905055505f833334426040516020016119ba9493929190613393565b6040516020818303038152906040528051906020012090508360065f60025481526020019081526020015f205f015f6101000a81548173ffffffffffffffffffffffffffffffffffffffff021916908373ffffffffffffffffffffffffffffffffffffffff1602179055503360065f60025481526020019081526020015f206001015f6101000a81548173ffffffffffffffffffffffffffffffffffffffff021916908373ffffffffffffffffffffffffffffffffffffffff1602179055503460065f60025481526020019081526020015f206002018190555060025460065f60025481526020019081526020015f20600301819055508060065f60025481526020019081526020015f20600401819055504260065f60025481526020019081526020015f20600501819055508260065f60025481526020019081526020015f206006019081611b0a9190612ff6565b50600160065f60025481526020019081526020015f206007015f6101000a81548160ff0219169083151502179055508373ffffffffffffffffffffffffffffffffffffffff166108fc3490811502906040515f60405180830381858888f19350505050158015611b7c573d5f5f3e3d5ffd5b505f600190505b5f548111611c33578473ffffffffffffffffffffffffffffffffffffffff1660045f8381526020019081526020015f206002015f9054906101000a900473ffffffffffffffffffffffffffffffffffffffff1673ffffffffffffffffffffffffffffffffffffffff1603611c20573460045f8381526020019081526020015f206005015f828254611c1491906133e0565b92505081905550611c33565b8080611c2b90612a30565b915050611b83565b507fa4b9a06586bf10b76edb605738a3d37e2e375e3e54854d11b3647ad07ef6a27d60025433863487604051611c6d959493929190613422565b60405180910390a160025491505092915050565b60015481565b60025481565b6009602052815f5260405f208181548110611ca6575f80fd5b905f5260205f2090600502015f9150915050805f018054611cc690612c08565b80601f0160208091040260200160405190810160405280929190818152602001828054611cf290612c08565b8015611d3d5780601f10611d1457610100808354040283529160200191611d3d565b820191905f5260205f20905b815481529060010190602001808311611d2057829003601f168201915b505050505090806001015490806002015490806003015f9054906101000a900460ff16908060040154905085565b6060600354604051602001611d8091906134ce565b604051602081830303815290604052905090565b5f60605f600190505b6002548111611e70578160065f8381526020019081526020015f205f015f9054906101000a900473ffffffffffffffffffffffffffffffffffffffff1660065f8481526020019081526020015f206001015f9054906101000a900473ffffffffffffffffffffffffffffffffffffffff1660065f8581526020019081526020015f206002015460065f8681526020019081526020015f2060040154604051602001611e4c9594939291906134f3565b60405160208183030381529060405291508080611e6890612a30565b915050611d9d565b50808051906020012091505090565b828054828255905f5260205f20908101928215611ec5579160200282015b82811115611ec4578251829081611eb49190612ff6565b5091602001919060010190611e9d565b5b509050611ed29190611ed6565b5090565b5b80821115611ef5575f8181611eec9190611ef9565b50600101611ed7565b5090565b508054611f0590612c08565b5f825580601f10611f165750611f33565b601f0160209004905f5260205f2090810190611f329190611f36565b5b50565b5b80821115611f4d575f815f905550600101611f37565b5090565b5f819050919050565b611f6381611f51565b82525050565b5f602082019050611f7c5f830184611f5a565b92915050565b5f604051905090565b5f5ffd5b5f5ffd5b611f9c81611f51565b8114611fa6575f5ffd5b50565b5f81359050611fb781611f93565b92915050565b5f8115159050919050565b611fd181611fbd565b8114611fdb575f5ffd5b50565b5f81359050611fec81611fc8565b92915050565b5f5f6040838503121561200857612007611f8b565b5b5f61201585828601611fa9565b925050602061202685828601611fde565b9150509250929050565b5f6020828403121561204557612044611f8b565b5b5f61205284828501611fa9565b91505092915050565b5f81519050919050565b5f82825260208201905092915050565b8281835e5f83830152505050565b5f601f19601f8301169050919050565b5f61209d8261205b565b6120a78185612065565b93506120b7818560208601612075565b6120c081612083565b840191505092915050565b5f73ffffffffffffffffffffffffffffffffffffffff82169050919050565b5f6120f4826120cb565b9050919050565b612104816120ea565b82525050565b61211381611fbd565b82525050565b5f60c0820190508181035f8301526121318189612093565b905081810360208301526121458188612093565b905061215460408301876120fb565b6121616060830186611f5a565b81810360808301526121738185612093565b905061218260a083018461210a565b979650505050505050565b5f819050919050565b61219f8161218d565b82525050565b5f610100820190508181035f8301526121be818b612093565b905081810360208301526121d2818a612093565b90506121e160408301896120fb565b6121ee6060830188611f5a565b6121fb6080830187612196565b61220860a0830186611f5a565b81810360c083015261221a8185612093565b905061222960e083018461210a565b9998505050505050505050565b5f60c0820190508181035f83015261224e8189612093565b905061225d60208301886120fb565b61226a6040830187611f5a565b6122776060830186612196565b6122846080830185611f5a565b61229160a083018461210a565b979650505050505050565b5f6080820190508181035f8301526122b48187612093565b90506122c360208301866120fb565b6122d06040830185611f5a565b6122dd606083018461210a565b95945050505050565b5f5ffd5b5f5ffd5b7f4e487b71000000000000000000000000000000000000000000000000000000005f52604160045260245ffd5b61232482612083565b810181811067ffffffffffffffff82111715612343576123426122ee565b5b80604052505050565b5f612355611f82565b9050612361828261231b565b919050565b5f67ffffffffffffffff8211156123805761237f6122ee565b5b61238982612083565b9050602081019050919050565b828183375f83830152505050565b5f6123b66123b184612366565b61234c565b9050828152602081018484840111156123d2576123d16122ea565b5b6123dd848285612396565b509392505050565b5f82601f8301126123f9576123f86122e6565b5b81356124098482602086016123a4565b91505092915050565b5f5f5f5f6080858703121561242a57612429611f8b565b5b5f61243787828801611fa9565b945050602085013567ffffffffffffffff81111561245857612457611f8f565b5b612464878288016123e5565b935050604061247587828801611fa9565b925050606061248687828801611fa9565b91505092959194509250565b5f81519050919050565b5f82825260208201905092915050565b5f6124b682612492565b6124c0818561249c565b93506124d0818560208601612075565b6124d981612083565b840191505092915050565b5f60e0820190506124f75f83018a611f5a565b818103602083015261250981896124ac565b90506125186040830188612196565b6125256060830187611f5a565b6125326080830186612196565b61253f60a0830185612196565b61254c60c0830184611f5a565b98975050505050505050565b612561816120ea565b811461256b575f5ffd5b50565b5f8135905061257c81612558565b92915050565b5f5f5f5f6080858703121561259a57612599611f8b565b5b5f85013567ffffffffffffffff8111156125b7576125b6611f8f565b5b6125c3878288016123e5565b945050602085013567ffffffffffffffff8111156125e4576125e3611f8f565b5b6125f0878288016123e5565b93505060406126018782880161256e565b925050606085013567ffffffffffffffff81111561262257612621611f8f565b5b61262e878288016123e5565b91505092959194509250565b5f5f604083850312156126505761264f611f8b565b5b5f61265d85828601611fa9565b925050602083013567ffffffffffffffff81111561267e5761267d611f8f565b5b61268a858286016123e5565b9150509250929050565b5f5f604083850312156126aa576126a9611f8b565b5b5f83013567ffffffffffffffff8111156126c7576126c6611f8f565b5b6126d3858286016123e5565b92505060206126e48582860161256e565b9150509250929050565b5f6126f8826120cb565b9050919050565b612708816126ee565b8114612712575f5ffd5b50565b5f81359050612723816126ff565b92915050565b5f6020828403121561273e5761273d611f8b565b5b5f61274b84828501612715565b91505092915050565b5f6020820190506127675f83018461210a565b92915050565b5f610100820190506127815f83018b6120fb565b61278e602083018a6120fb565b61279b6040830189611f5a565b6127a86060830188611f5a565b6127b56080830187612196565b6127c260a0830186611f5a565b81810360c08301526127d48185612093565b90506127e360e083018461210a565b9998505050505050505050565b5f81519050919050565b5f82825260208201905092915050565b5f819050602082019050919050565b5f82825260208201905092915050565b5f6128338261205b565b61283d8185612819565b935061284d818560208601612075565b61285681612083565b840191505092915050565b5f61286c8383612829565b905092915050565b5f602082019050919050565b5f61288a826127f0565b61289481856127fa565b9350836020820285016128a68561280a565b805f5b858110156128e157848403895281516128c28582612861565b94506128cd83612874565b925060208a019950506001810190506128a9565b50829750879550505050505092915050565b5f6020820190508181035f83015261290b8184612880565b905092915050565b5f5f6040838503121561292957612928611f8b565b5b5f6129368582860161256e565b925050602083013567ffffffffffffffff81111561295757612956611f8f565b5b612963858286016123e5565b9150509250929050565b5f5f6040838503121561298357612982611f8b565b5b5f61299085828601611fa9565b92505060206129a185828601611fa9565b9150509250929050565b5f60a0820190508181035f8301526129c38188612093565b90506129d26020830187611f5a565b6129df6040830186611f5a565b6129ec606083018561210a565b6129f96080830184611f5a565b9695505050505050565b7f4e487b71000000000000000000000000000000000000000000000000000000005f52601160045260245ffd5b5f612a3a82611f51565b91507fffffffffffffffffffffffffffffffffffffffffffffffffffffffffffffffff8203612a6c57612a6b612a03565b5b600182019050919050565b5f612a8182611f51565b9150612a8c83611f51565b9250828203905081811115612aa457612aa3612a03565b5b92915050565b7f4e487b71000000000000000000000000000000000000000000000000000000005f52601260045260245ffd5b5f612ae182611f51565b9150612aec83611f51565b925082612afc57612afb612aaa565b5b828206905092915050565b5f819050919050565b612b21612b1c82611f51565b612b07565b82525050565b5f81905092915050565b5f612b3b82612492565b612b458185612b27565b9350612b55818560208601612075565b80840191505092915050565b5f819050919050565b612b7b612b768261218d565b612b61565b82525050565b5f612b8c8288612b10565b602082019150612b9c8287612b31565b9150612ba88286612b6a565b602082019150612bb88285612b6a565b602082019150612bc88284612b10565b6020820191508190509695505050505050565b7f4e487b71000000000000000000000000000000000000000000000000000000005f52602260045260245ffd5b5f6002820490506001821680612c1f57607f821691505b602082108103612c3257612c31612bdb565b5b50919050565b5f819050815f5260205f209050919050565b5f6020601f8301049050919050565b5f82821b905092915050565b5f60088302612c947fffffffffffffffffffffffffffffffffffffffffffffffffffffffffffffffff82612c59565b612c9e8683612c59565b95508019841693508086168417925050509392505050565b5f819050919050565b5f612cd9612cd4612ccf84611f51565b612cb6565b611f51565b9050919050565b5f819050919050565b612cf283612cbf565b612d06612cfe82612ce0565b848454612c65565b825550505050565b5f5f905090565b612d1d612d0e565b612d28818484612ce9565b505050565b5b81811015612d4b57612d405f82612d15565b600181019050612d2e565b5050565b601f821115612d9057612d6181612c38565b612d6a84612c4a565b81016020851015612d79578190505b612d8d612d8585612c4a565b830182612d2d565b50505b505050565b5f82821c905092915050565b5f612db05f1984600802612d95565b1980831691505092915050565b5f612dc88383612da1565b9150826002028217905092915050565b612de182612492565b67ffffffffffffffff811115612dfa57612df96122ee565b5b612e048254612c08565b612e0f828285612d4f565b5f60209050601f831160018114612e40575f8415612e2e578287015190505b612e388582612dbd565b865550612e9f565b601f198416612e4e86612c38565b5f5b82811015612e7557848901518255600182019150602085019450602081019050612e50565b86831015612e925784890151612e8e601f891682612da1565b8355505b6001600288020188555050505b505050505050565b5f604082019050612eba5f830185611f5a565b612ec76020830184612196565b9392505050565b7f496e76616c6964206368617269747920494400000000000000000000000000005f82015250565b5f612f02601283612065565b9150612f0d82612ece565b602082019050919050565b5f6020820190508181035f830152612f2f81612ef6565b9050919050565b7f496e76616c6964206f7267616e697a6174696f6e2049440000000000000000005f82015250565b5f612f6a601783612065565b9150612f7582612f36565b602082019050919050565b5f6020820190508181035f830152612f9781612f5e565b9050919050565b5f819050815f5260205f209050919050565b601f821115612ff157612fc281612f9e565b612fcb84612c4a565b81016020851015612fda578190505b612fee612fe685612c4a565b830182612d2d565b50505b505050565b612fff8261205b565b67ffffffffffffffff811115613018576130176122ee565b5b6130228254612c08565b61302d828285612fb0565b5f60209050601f83116001811461305e575f841561304c578287015190505b6130568582612dbd565b8655506130bd565b601f19841661306c86612f9e565b5f5b828110156130935784890151825560018201915060208501945060208101905061306e565b868310156130b057848901516130ac601f891682612da1565b8355505b6001600288020188555050505b505050505050565b5f6080820190506130d85f830187611f5a565b6130e56020830186611f5a565b81810360408301526130f78185612093565b90506131066060830184611f5a565b95945050505050565b5f8160601b9050919050565b5f6131258261310f565b9050919050565b5f6131368261311b565b9050919050565b61314e613149826120ea565b61312c565b82525050565b5f61315f828461313d565b60148201915081905092915050565b5f6131798286612b31565b91506131858285612b31565b91506131918284612b31565b9150819050949350505050565b5f6131b86131b36131ae846120cb565b612cb6565b6120cb565b9050919050565b5f6131c98261319e565b9050919050565b5f6131da826131bf565b9050919050565b6131ea816131d0565b82525050565b5f6060820190506132035f830186611f5a565b81810360208301526132158185612093565b905061322460408301846131e1565b949350505050565b7f4f6e6c792063686172697479206f776e65722063616e206164642075706461745f8201527f6573000000000000000000000000000000000000000000000000000000000000602082015250565b5f613286602283612065565b91506132918261322c565b604082019050919050565b5f6020820190508181035f8301526132b38161327a565b9050919050565b5f6132c58285612b31565b91506132d18284612b31565b91508190509392505050565b7f446f6e6174696f6e20616d6f756e74206d7573742062652067726561746572205f8201527f7468616e20300000000000000000000000000000000000000000000000000000602082015250565b5f613337602683612065565b9150613342826132dd565b604082019050919050565b5f6020820190508181035f8301526133648161332b565b9050919050565b5f6133758261311b565b9050919050565b61338d613388826126ee565b61336b565b82525050565b5f61339e828761313d565b6014820191506133ae828661337c565b6014820191506133be8285612b10565b6020820191506133ce8284612b10565b60208201915081905095945050505050565b5f6133ea82611f51565b91506133f583611f51565b925082820190508082111561340d5761340c612a03565b5b92915050565b61341c816126ee565b82525050565b5f60a0820190506134355f830188611f5a565b6134426020830187613413565b61344f60408301866131e1565b61345c6060830185611f5a565b818103608083015261346e8184612093565b90509695505050505050565b5f81905092915050565b7f426c6f636b20646174612073756d6d61727920666f7220626c6f636b200000005f82015250565b5f6134b8601d8361347a565b91506134c382613484565b601d82019050919050565b5f6134d8826134ac565b91506134e48284612b10565b60208201915081905092915050565b5f6134fe8288612b31565b915061350a828761313d565b60148201915061351a828661313d565b60148201915061352a8285612b10565b60208201915061353a8284612b6a565b602082019150819050969550505050505056fea26469706673582212202d7922ba611961d9687bd32cf5d8e41775cdda78a1ba46335742a5b505de1c9864736f6c634300081d0033537570706f7274696e6720676c6f62616c2068756d616e6974617269616e206566666f727473207468726f75676820626c6f636b636861696e20746563686e6f6c6f677950726f766964696e6720636c65616e20776174657220746f20313030302070656f706c65",
  "immutableReferences": {},
  "source": "// SPDX-License-Identifier: MIT\r\npragma solidity ^0.8.0; // Updated Pragma\r\n\r\ncontract charity {\r\n  uint public charity_count = 0;\r\n  uint public org_count = 0;\r\n  uint public transaction_count = 0;\r\n  uint public blockchain_count = 0;\r\n\r\n  // Charity structure - removed bank account references\r\n  struct charity_structre {\r\n    string name;\r\n    string description;\r\n    address payable wallet_address;  // Direct ETH wallet address\r\n    uint id;\r\n    bytes32 hash;\r\n    uint balance;  // Track balance in wei\r\n    string impact_metrics;  // Track impact of donations\r\n    bool verified;  // Verification status\r\n    string[] updates;  // Project updates\r\n  }\r\n\r\n  // Organization structure - removed bank account references\r\n  struct personOrOrganisation_structure {\r\n    string name;\r\n    address payable wallet_address;  // Direct ETH wallet address\r\n    uint id;\r\n    bytes32 hash;\r\n    uint balance;  // Track balance in wei\r\n    bool verified;  // Verification status\r\n  }\r\n\r\n  // Transaction structure with more details\r\n  struct transactions {\r\n    address payable charity_address;\r\n    address payable organisation_address; // This needs to be payable\r\n    uint amount;\r\n    uint id;\r\n    bytes32 transaction_hash;\r\n    uint timestamp;\r\n    string purpose;  // Purpose of donation\r\n    bool completed;\r\n  }\r\n\r\n  // Blockchain structure remains similar\r\n  struct blockchain_structure {\r\n    uint nonce;\r\n    bytes data;\r\n    bytes32 transaction_hash_add;\r\n    uint blockNumber;\r\n    bytes32 hash;\r\n    bytes32 previous_hash;\r\n    uint timestamp;\r\n  }\r\n\r\n  // Milestone-based funding structure\r\n  struct funding_milestone {\r\n    string description;\r\n    uint target_amount;\r\n    uint current_amount;\r\n    bool released;\r\n    uint deadline;\r\n  }\r\n\r\n  // Mappings\r\n  mapping(uint => charity_structre) public charitys;\r\n  mapping(uint => personOrOrganisation_structure) public org;\r\n  mapping(uint => transactions) public transaction_dict;\r\n  mapping(uint => blockchain_structure) public Blockchain;\r\n  mapping(address => bool) public verified_addresses;\r\n  mapping(uint => funding_milestone[]) public charity_milestones;\r\n\r\n  bytes32 previousHash;\r\n\r\n  // Events for better tracking\r\n  event CharityCreated(uint id, string name, address wallet_address);\r\n  event OrganisationCreated(uint id, string name, address wallet_address);\r\n  event TransactionCompleted(uint id, address from, address to, uint amount, string purpose);\r\n  event BlockMined(uint blockNumber, bytes32 blockHash);\r\n  event MilestoneCreated(uint charity_id, uint milestone_id, string description, uint target);\r\n  event MilestoneCompleted(uint charity_id, uint milestone_id);\r\n\r\n  // Constructor updated - removed 'public'\r\n  constructor() {\r\n    // Initialize with a default charity and organization\r\n    // Note: Using hardcoded addresses in constructors is generally for testing/deployment scripts.\r\n    // Consider making these parameters if deploying for real use.\r\n    createCharity(\"Blockchain Relief Fund\", \"Supporting global humanitarian efforts through blockchain technology\", payable(0xCA35b7d915458EF540aDe6068dFe2F44E8fa733c), \"Providing clean water to 1000 people\");\r\n    createOrganisation(\"Crypto Donors Alliance\", payable(0xCA35b7d915458EF540aDe6068dFe2F44E8fa733c)); // Example address, ensure it's payable if needed\r\n    blockchain_function(); // Initial block mining\r\n  }\r\n\r\n  // ... existing code ...\r\n// ... existing constructor and struct definitions ...\r\n\r\n// Your contract function is correct with 4 parameters\r\nfunction createCharity(\r\n  string memory _name,\r\n  string memory _description,\r\n  address payable _wallet_address,\r\n  string memory _impact_metrics\r\n) public returns(uint) {\r\n  charity_count++;\r\n  \r\n  bytes memory name_byte = bytes(_name);\r\n  bytes memory description_byte = bytes(_description);\r\n  bytes memory address_bytes = abi.encodePacked(_wallet_address);\r\n  \r\n  bytes memory combined = abi.encodePacked(name_byte, description_byte, address_bytes);\r\n  bytes32 hash_value = keccak256(combined);\r\n  \r\n  charitys[charity_count] = charity_structre({\r\n    name: _name,\r\n    description: _description,\r\n    wallet_address: _wallet_address,\r\n    id: charity_count,\r\n    hash: hash_value,\r\n    balance: 0,\r\n    impact_metrics: _impact_metrics,\r\n    verified: false,\r\n    updates: new string[](0)\r\n  });\r\n  \r\n  emit CharityCreated(charity_count, _name, _wallet_address);\r\n  return charity_count;\r\n}\r\n// ... existing code ...\r\n\r\n  // Create organization with direct wallet address\r\n  function createOrganisation(string memory _name, address payable _wallet_address) public returns(uint) {\r\n    org_count++;\r\n\r\n    // Generate hash from organization details\r\n    bytes memory name_byte = bytes(_name);\r\n    bytes memory address_bytes = abi.encodePacked(_wallet_address);\r\n\r\n    bytes memory combined = abi.encodePacked(name_byte, address_bytes);\r\n    bytes32 hash_value = keccak256(combined);\r\n\r\n    // Store organization details\r\n    org[org_count].name = _name;\r\n    org[org_count].wallet_address = _wallet_address;\r\n    org[org_count].id = org_count;\r\n    org[org_count].hash = hash_value;\r\n    org[org_count].balance = 0; // This balance seems unused currently\r\n    org[org_count].verified = false;\r\n\r\n    emit OrganisationCreated(org_count, _name, _wallet_address);\r\n    return org_count;\r\n  }\r\n\r\n  // Create transaction with direct ETH transfer\r\n  function createTransaction(address payable _charity_address, string memory _purpose) public payable returns(uint) {\r\n    require(msg.value > 0, \"Donation amount must be greater than 0\");\r\n\r\n    transaction_count++;\r\n\r\n    // Generate transaction hash\r\n    bytes32 tx_hash = keccak256(abi.encodePacked(_charity_address, msg.sender, msg.value, block.timestamp));\r\n\r\n    // Store transaction details\r\n    transaction_dict[transaction_count].charity_address = _charity_address;\r\n    // *** Updated: Cast msg.sender to payable ***\r\n    transaction_dict[transaction_count].organisation_address = payable(msg.sender);\r\n    transaction_dict[transaction_count].amount = msg.value;\r\n    transaction_dict[transaction_count].id = transaction_count;\r\n    transaction_dict[transaction_count].transaction_hash = tx_hash;\r\n    transaction_dict[transaction_count].timestamp = block.timestamp;\r\n    transaction_dict[transaction_count].purpose = _purpose;\r\n    transaction_dict[transaction_count].completed = true;\r\n\r\n    // Transfer ETH to charity\r\n    // Using transfer is simple but has gas limits. Consider call for more complex receivers.\r\n    _charity_address.transfer(msg.value);\r\n\r\n    // Update internal charity balance tracking (optional, as blockchain balance is the source of truth)\r\n    // Note: This only tracks donations made *through this contract*. Direct transfers aren't tracked here.\r\n    for(uint i = 1; i <= charity_count; i++) {\r\n      if(charitys[i].wallet_address == _charity_address) {\r\n        charitys[i].balance += msg.value; // Safe arithmetic in 0.8+\r\n        break;\r\n      }\r\n    }\r\n\r\n    emit TransactionCompleted(transaction_count, msg.sender, _charity_address, msg.value, _purpose);\r\n    return transaction_count;\r\n  }\r\n\r\n  // Create milestone for a charity\r\n  function createMilestone(uint _charity_id, string memory _description, uint _target_amount, uint _deadline) public returns(uint) {\r\n    require(_charity_id > 0 && _charity_id <= charity_count, \"Invalid charity ID\");\r\n    // Add require for msg.sender authorization if needed (e.g., only charity owner)\r\n    // require(msg.sender == charitys[_charity_id].wallet_address, \"Only charity owner can create milestones\");\r\n\r\n    uint milestone_id = charity_milestones[_charity_id].length;\r\n\r\n    funding_milestone memory new_milestone = funding_milestone({\r\n      description: _description,\r\n      target_amount: _target_amount,\r\n      current_amount: 0,\r\n      released: false,\r\n      deadline: _deadline // Ensure deadline logic is implemented elsewhere if needed\r\n    });\r\n\r\n    charity_milestones[_charity_id].push(new_milestone);\r\n\r\n    emit MilestoneCreated(_charity_id, milestone_id, _description, _target_amount);\r\n    return milestone_id;\r\n  }\r\n\r\n  // Verify a charity or organization (could be restricted to admin/owner)\r\n  function verifyEntity(uint _id, bool _is_charity) public {\r\n    // Add access control (e.g., onlyOwner modifier)\r\n    if(_is_charity) {\r\n      require(_id > 0 && _id <= charity_count, \"Invalid charity ID\");\r\n      charitys[_id].verified = true;\r\n      verified_addresses[charitys[_id].wallet_address] = true;\r\n    } else {\r\n      require(_id > 0 && _id <= org_count, \"Invalid organization ID\");\r\n      org[_id].verified = true;\r\n      verified_addresses[org[_id].wallet_address] = true;\r\n    }\r\n  }\r\n\r\n  // Add update to charity\r\n  function addCharityUpdate(uint _charity_id, string memory _update) public {\r\n    require(_charity_id > 0 && _charity_id <= charity_count, \"Invalid charity ID\");\r\n    // Comparing address with address payable is fine\r\n    require(msg.sender == charitys[_charity_id].wallet_address, \"Only charity owner can add updates\");\r\n\r\n    charitys[_charity_id].updates.push(_update);\r\n  }\r\n\r\n  // Get charity updates\r\n  function getCharityUpdates(uint _charity_id) public view returns(string[] memory) {\r\n    require(_charity_id > 0 && _charity_id <= charity_count, \"Invalid charity ID\");\r\n    return charitys[_charity_id].updates;\r\n  }\r\n\r\n  // Mining function (simplified concept - real mining doesn't happen in contract)\r\n  // This simulates creating a block record within the contract's state.\r\n  function blockchain_function() public {\r\n    blockchain_count++;\r\n\r\n    // Collect data from all entities and transactions\r\n    bytes memory dataString = collectBlockchainData();\r\n\r\n    // Generate transaction hash summary for the block\r\n    bytes32 transaction_hash_address = generateTransactionHashSummary();\r\n\r\n    // Generate block hash\r\n    // Note: Using blockhash is only reliable for recent blocks (last 256).\r\n    // Using block.number-1 is okay, but the nonce derived is predictable.\r\n    // This is NOT cryptographically secure mining.\r\n    uint nonce = uint(blockhash(block.number - 1)) % 1000000; // Simple pseudo-nonce\r\n    bytes32 hash_addressNew = keccak256(abi.encodePacked(nonce, dataString, transaction_hash_address, previousHash, block.timestamp));\r\n\r\n    // Create new block record\r\n    Blockchain[blockchain_count] = blockchain_structure({\r\n      nonce: nonce,\r\n      data: dataString,\r\n      transaction_hash_add: transaction_hash_address,\r\n      blockNumber: blockchain_count,\r\n      hash: hash_addressNew,\r\n      previous_hash: previousHash, // Links to previous contract-internal block record\r\n      timestamp: block.timestamp\r\n    });\r\n\r\n    // Update previous hash for next block record\r\n    previousHash = hash_addressNew;\r\n\r\n    emit BlockMined(blockchain_count, hash_addressNew);\r\n  }\r\n\r\n  // Helper function to collect blockchain data summary\r\n  // This is a placeholder - real implementation would be more complex.\r\n  function collectBlockchainData() private view returns(bytes memory) {\r\n    // Example: could concatenate hashes or summaries of structs\r\n    return abi.encodePacked(\"Block data summary for block \", blockchain_count);\r\n  }\r\n\r\n  // Helper function to generate a hash summary of transactions for the block record\r\n  function generateTransactionHashSummary() private view returns(bytes32) {\r\n    // This creates a hash digest of *all* recorded transactions up to this point.\r\n    // A more typical block would only include *new* transactions since the last block.\r\n    bytes memory txData;\r\n\r\n    for(uint i = 1; i <= transaction_count; i++) {\r\n      txData = abi.encodePacked(\r\n        txData,\r\n        transaction_dict[i].charity_address,\r\n        transaction_dict[i].organisation_address,\r\n        transaction_dict[i].amount,\r\n        transaction_dict[i].transaction_hash // Include individual tx hash\r\n      );\r\n    }\r\n\r\n    return keccak256(txData);\r\n  }\r\n\r\n  // Get charity details\r\n  function getCharityDetails(uint _id) public view returns(\r\n    string memory name,\r\n    string memory description,\r\n    address payable wallet_address, // *** Updated return type ***\r\n    uint balance, // Internal tracked balance\r\n    string memory impact_metrics,\r\n    bool verified\r\n  ) {\r\n    require(_id > 0 && _id <= charity_count, \"Invalid charity ID\");\r\n\r\n    charity_structre storage c = charitys[_id]; // Use storage pointer for efficiency\r\n    return (c.name, c.description, c.wallet_address, c.balance, c.impact_metrics, c.verified);\r\n  }\r\n\r\n  // Get organization details\r\n  function getOrganisationDetails(uint _id) public view returns(\r\n    string memory name,\r\n    address payable wallet_address, // *** Updated return type ***\r\n    uint balance, // Internal tracked balance (seems unused)\r\n    bool verified\r\n  ) {\r\n    require(_id > 0 && _id <= org_count, \"Invalid organization ID\");\r\n\r\n    personOrOrganisation_structure storage o = org[_id]; // Use storage pointer\r\n    return (o.name, o.wallet_address, o.balance, o.verified);\r\n  }\r\n}",
  "sourcePath": "C:\\Users\\yashg\\Downloads\\Blockchain-Project\\CharityBlockchain\\contracts\\charity.sol",
  "compiler": {
    "name": "solc",
    "version": "0.8.29+commit.ab55807c.Emscripten.clang"
  },
  "schemaVersion": "3.4.16",
  "updatedAt": "2025-04-18T16:44:19.935Z",
  "devdoc": {
    "kind": "dev",
    "methods": {},
    "version": 1
  },
  "userdoc": {
    "kind": "user",
    "methods": {},
    "version": 1
  }
}